:100000000C942A000C9434010C943C000C943C0099
:100010000C943C000C943C000C943C000C943C0070
:100020000C943C000C943C000C943C000C94F400A8
:100030000C943C000C943C000C943C000C943C0050
:100040000C943C000C943C000C943C000C943C0040
:100050000C943C0011241FBECFE5D8E0DEBFCDBF1D
:1000600020E0A0E6B0E001C01D92AF36B207E1F794
:100070000E945D010C94F8010C94000021E030E036
:1000800001C0220F6A95EAF7813021F08BB3282B4B
:100090002BBB089588B3282B28BB0895413011F459
:1000A0000C943E0021E030E001C0220F6A95EAF78F
:1000B0002095813021F08BB328232BBB089588B382
:1000C000282328BB0895CF93C82F6130710539F0DC
:1000D00080F062307105D9F06330710531F540E090
:1000E00060E08C2F0E944E0061E08C2F0E943E0049
:1000F00008C060E00E943E0040E061E08C2F0E945A
:100100004E0040E062E08C2FCF910C944E0040E016
:1001100060E00E944E0040E061E08C2F0E944E00A3
:1001200062E08C2FCF910C943E00CF9108958BB755
:100130008F7B8BBF8091640090916500009711F0D8
:100140000397E9F481E090E0909365008093640068
:1001500061E070E080E00E94630083E090E09093B3
:1001600061008093600063E070E081E00E946300C2
:1001700010926E0010926D008091680082BF089509
:1001800080916400909165008330910509F510928B
:10019000650010926400609164007091650080E0D9
:1001A0000E9463008091600090916100833091050E
:1001B000A9F410926100109260006091600070914B
:1001C000610081E00E9463008BB780648BBF08955B
:1001D00001969093650080936400DDCF0196909323
:1001E000610080936000E9CF1F920F920FB60F92CB
:1001F00011242F933F934F935F936F937F938F932C
:100200009F93AF93BF93EF93FF9380916D00909175
:100210006E00019690936E0080936D0020916B00AC
:1002200030916C002817390770F4E0916900F09163
:100230006A00309709F0099510926E0010926D00D7
:100240008091680082BFFF91EF91BF91AF919F9124
:100250008F917F916F915F914F913F912F910F906F
:100260000FBE0F901F9018951F920F920FB60F920E
:1002700011242F933F934F935F936F937F938F93AB
:100280009F93AF93BF93EF93FF93E0916600F0913C
:100290006700309709F00995FF91EF91BF91AF91F9
:1002A0009F918F917F916F915F914F913F912F918E
:1002B0000F900FBE0F901F9018958A98929A85B74D
:1002C0008E7F85BF85B7826085BF8BB780648BBF0B
:1002D00087E990E090936700809366001092650034
:1002E0001092640082E090E090936100809360003F
:1002F000D09AD19AD29AB89AB99ABA9A609164006F
:100300007091650080E00E946300609160007091D0
:10031000610081E00E94630080EC90E090936A00AD
:100320008093690083B78F7B83BF83B7877F83BF49
:1003300083B7816083BF83B78D7F83BF83B78460BA
:1003400083BF89B7816089BF89B78D7F89BF12BE9E
:100350001CBE10926E0010926D0089E680936800BA
:1003600082BF88E990E090936C0080936B008FB718
:1003700080688FBFCAE0D0E022E080916400909155
:1003800065008D7F0197C9F7E0916D00F0916E00D7
:10039000CF01BE010E94E401892B79F780916200B0
:1003A00090916300E817F90741F38BB382278BBB69
:1003B00088B3822788BB80916D0090916E009093E6
:1003C000630080936200D9CFAA1BBB1B51E107C019
:1003D000AA1FBB1FA617B70710F0A61BB70B881FD5
:1003E000991F5A95A9F780959095BC01CD01089564
:0403F000F894FFCFAF
:00000001FF
